{
  "contractName": "DataAccess",
  "abi": [
    {
      "constant": true,
      "inputs": [
        {
          "name": "",
          "type": "uint256"
        }
      ],
      "name": "userIndex",
      "outputs": [
        {
          "name": "",
          "type": "address"
        }
      ],
      "payable": false,
      "stateMutability": "view",
      "type": "function"
    },
    {
      "constant": true,
      "inputs": [],
      "name": "datalocationsCount",
      "outputs": [
        {
          "name": "",
          "type": "uint256"
        }
      ],
      "payable": false,
      "stateMutability": "view",
      "type": "function"
    },
    {
      "anonymous": false,
      "inputs": [
        {
          "indexed": true,
          "name": "_dataLocationId",
          "type": "uint256"
        }
      ],
      "name": "storedEvent",
      "type": "event"
    },
    {
      "anonymous": false,
      "inputs": [
        {
          "indexed": true,
          "name": "dataAddress",
          "type": "address"
        },
        {
          "indexed": false,
          "name": "ownerName",
          "type": "string"
        },
        {
          "indexed": false,
          "name": "institution",
          "type": "string"
        },
        {
          "indexed": false,
          "name": "bgChainToken",
          "type": "string"
        },
        {
          "indexed": false,
          "name": "dateOfAccess",
          "type": "string"
        },
        {
          "indexed": false,
          "name": "projectSummary",
          "type": "string"
        },
        {
          "indexed": false,
          "name": "index",
          "type": "uint256"
        }
      ],
      "name": "LogNewData",
      "type": "event"
    },
    {
      "anonymous": false,
      "inputs": [
        {
          "indexed": true,
          "name": "dataAddress",
          "type": "address"
        },
        {
          "indexed": false,
          "name": "ownerName",
          "type": "string"
        },
        {
          "indexed": false,
          "name": "institution",
          "type": "string"
        },
        {
          "indexed": false,
          "name": "bgChainToken",
          "type": "string"
        },
        {
          "indexed": false,
          "name": "dateOfAccess",
          "type": "string"
        },
        {
          "indexed": false,
          "name": "projectsSummary",
          "type": "string"
        },
        {
          "indexed": false,
          "name": "index",
          "type": "uint256"
        }
      ],
      "name": "LogUpdateData",
      "type": "event"
    },
    {
      "constant": false,
      "inputs": [],
      "name": "enroll",
      "outputs": [
        {
          "name": "",
          "type": "uint256"
        }
      ],
      "payable": false,
      "stateMutability": "nonpayable",
      "type": "function"
    },
    {
      "constant": true,
      "inputs": [
        {
          "name": "dataAddress",
          "type": "address"
        }
      ],
      "name": "validateData",
      "outputs": [
        {
          "name": "checkedOwner",
          "type": "bool"
        }
      ],
      "payable": false,
      "stateMutability": "view",
      "type": "function"
    },
    {
      "constant": false,
      "inputs": [
        {
          "name": "dataAddress",
          "type": "address"
        },
        {
          "name": "_ownerName",
          "type": "string"
        },
        {
          "name": "_institution",
          "type": "string"
        },
        {
          "name": "_bgChainToken",
          "type": "string"
        },
        {
          "name": "_dateOfAccess",
          "type": "string"
        },
        {
          "name": "_projectSummary",
          "type": "string"
        }
      ],
      "name": "insertDataLocation",
      "outputs": [
        {
          "name": "index",
          "type": "uint256"
        }
      ],
      "payable": false,
      "stateMutability": "nonpayable",
      "type": "function"
    },
    {
      "constant": true,
      "inputs": [
        {
          "name": "dataAddress",
          "type": "address"
        }
      ],
      "name": "getData",
      "outputs": [
        {
          "name": "ownerName",
          "type": "string"
        },
        {
          "name": "institution",
          "type": "string"
        },
        {
          "name": "bgChainToken",
          "type": "string"
        },
        {
          "name": "dateOfAccess",
          "type": "string"
        },
        {
          "name": "projectSummary",
          "type": "string"
        },
        {
          "name": "index",
          "type": "uint256"
        }
      ],
      "payable": false,
      "stateMutability": "view",
      "type": "function"
    },
    {
      "constant": false,
      "inputs": [
        {
          "name": "_dataAddress",
          "type": "address"
        },
        {
          "name": "_dateOfAccess",
          "type": "string"
        },
        {
          "name": "_projectSummary",
          "type": "string"
        },
        {
          "name": "_bgChainToken",
          "type": "string"
        }
      ],
      "name": "updateDataLocation",
      "outputs": [
        {
          "name": "success",
          "type": "bool"
        }
      ],
      "payable": false,
      "stateMutability": "nonpayable",
      "type": "function"
    },
    {
      "constant": true,
      "inputs": [],
      "name": "getDataCount",
      "outputs": [
        {
          "name": "count",
          "type": "uint256"
        }
      ],
      "payable": false,
      "stateMutability": "view",
      "type": "function"
    },
    {
      "constant": true,
      "inputs": [
        {
          "name": "index",
          "type": "uint256"
        }
      ],
      "name": "getUserAtIndex",
      "outputs": [
        {
          "name": "dataAddress",
          "type": "address"
        }
      ],
      "payable": false,
      "stateMutability": "view",
      "type": "function"
    }
  ],
  "bytecode": "0x6060604052341561000f57600080fd5b6119178061001e6000396000f300606060405260043610610099576000357c0100000000000000000000000000000000000000000000000000000000900463ffffffff16806338266b221461009e5780637355a4241461030757806389331267146103305780638eabb7c21461044a578063c37dfd6e146105e6578063e65f2a7e14610649578063f5c02eba14610672578063ffa5587d146106c3578063ffcc7bbf146106ec575b600080fd5b34156100a957600080fd5b6100d5600480803573ffffffffffffffffffffffffffffffffffffffff1690602001909190505061074f565b60405180806020018060200180602001806020018060200187815260200186810386528c818151815260200191508051906020019080838360005b8381101561012b578082015181840152602081019050610110565b50505050905090810190601f1680156101585780820380516001836020036101000a031916815260200191505b5086810385528b818151815260200191508051906020019080838360005b83811015610191578082015181840152602081019050610176565b50505050905090810190601f1680156101be5780820380516001836020036101000a031916815260200191505b5086810384528a818151815260200191508051906020019080838360005b838110156101f75780820151818401526020810190506101dc565b50505050905090810190601f1680156102245780820380516001836020036101000a031916815260200191505b50868103835289818151815260200191508051906020019080838360005b8381101561025d578082015181840152602081019050610242565b50505050905090810190601f16801561028a5780820380516001836020036101000a031916815260200191505b50868103825288818151815260200191508051906020019080838360005b838110156102c35780820151818401526020810190506102a8565b50505050905090810190601f1680156102f05780820380516001836020036101000a031916815260200191505b509b50505050505050505050505060405180910390f35b341561031257600080fd5b61031a610c35565b6040518082815260200191505060405180910390f35b341561033b57600080fd5b610430600480803573ffffffffffffffffffffffffffffffffffffffff1690602001909190803590602001908201803590602001908080601f0160208091040260200160405190810160405280939291908181526020018383808284378201915050505050509190803590602001908201803590602001908080601f0160208091040260200160405190810160405280939291908181526020018383808284378201915050505050509190803590602001908201803590602001908080601f01602080910402602001604051908101604052809392919081815260200183838082843782019150505050505091905050610c42565b604051808215151515815260200191505060405180910390f35b341561045557600080fd5b6105d0600480803573ffffffffffffffffffffffffffffffffffffffff1690602001909190803590602001908201803590602001908080601f0160208091040260200160405190810160405280939291908181526020018383808284378201915050505050509190803590602001908201803590602001908080601f0160208091040260200160405190810160405280939291908181526020018383808284378201915050505050509190803590602001908201803590602001908080601f0160208091040260200160405190810160405280939291908181526020018383808284378201915050505050509190803590602001908201803590602001908080601f0160208091040260200160405190810160405280939291908181526020018383808284378201915050505050509190803590602001908201803590602001908080601f016020809104026020016040519081016040528093929190818152602001838380828437820191505050505050919050506110d0565b6040518082815260200191505060405180910390f35b34156105f157600080fd5b6106076004808035906020019091905050611649565b604051808273ffffffffffffffffffffffffffffffffffffffff1673ffffffffffffffffffffffffffffffffffffffff16815260200191505060405180910390f35b341561065457600080fd5b61065c611688565b6040518082815260200191505060405180910390f35b341561067d57600080fd5b6106a9600480803573ffffffffffffffffffffffffffffffffffffffff169060200190919050506116f2565b604051808215151515815260200191505060405180910390f35b34156106ce57600080fd5b6106d66117bc565b6040518082815260200191505060405180910390f35b34156106f757600080fd5b61070d60048080359060200190919050506117c2565b604051808273ffffffffffffffffffffffffffffffffffffffff1673ffffffffffffffffffffffffffffffffffffffff16815260200191505060405180910390f35b610757611806565b61075f611806565b610767611806565b61076f611806565b610777611806565b6000610782876116f2565b151561078d57600080fd5b6000808873ffffffffffffffffffffffffffffffffffffffff1673ffffffffffffffffffffffffffffffffffffffff1681526020019081526020016000206000016000808973ffffffffffffffffffffffffffffffffffffffff1673ffffffffffffffffffffffffffffffffffffffff1681526020019081526020016000206001016000808a73ffffffffffffffffffffffffffffffffffffffff1673ffffffffffffffffffffffffffffffffffffffff1681526020019081526020016000206002016000808b73ffffffffffffffffffffffffffffffffffffffff1673ffffffffffffffffffffffffffffffffffffffff1681526020019081526020016000206003016000808c73ffffffffffffffffffffffffffffffffffffffff1673ffffffffffffffffffffffffffffffffffffffff1681526020019081526020016000206004016000808d73ffffffffffffffffffffffffffffffffffffffff1673ffffffffffffffffffffffffffffffffffffffff16815260200190815260200160002060060154858054600181600116156101000203166002900480601f0160208091040260200160405190810160405280929190818152602001828054600181600116156101000203166002900480156109a95780601f1061097e576101008083540402835291602001916109a9565b820191906000526020600020905b81548152906001019060200180831161098c57829003601f168201915b50505050509550848054600181600116156101000203166002900480601f016020809104026020016040519081016040528092919081815260200182805460018160011615610100020316600290048015610a455780601f10610a1a57610100808354040283529160200191610a45565b820191906000526020600020905b815481529060010190602001808311610a2857829003601f168201915b50505050509450838054600181600116156101000203166002900480601f016020809104026020016040519081016040528092919081815260200182805460018160011615610100020316600290048015610ae15780601f10610ab657610100808354040283529160200191610ae1565b820191906000526020600020905b815481529060010190602001808311610ac457829003601f168201915b50505050509350828054600181600116156101000203166002900480601f016020809104026020016040519081016040528092919081815260200182805460018160011615610100020316600290048015610b7d5780601f10610b5257610100808354040283529160200191610b7d565b820191906000526020600020905b815481529060010190602001808311610b6057829003601f168201915b50505050509250818054600181600116156101000203166002900480601f016020809104026020016040519081016040528092919081815260200182805460018160011615610100020316600290048015610c195780601f10610bee57610100808354040283529160200191610c19565b820191906000526020600020905b815481529060010190602001808311610bfc57829003601f168201915b5050505050915095509550955095509550955091939550919395565b6000600380549050905090565b6000610c4d856116f2565b1515610c5857600080fd5b836000808773ffffffffffffffffffffffffffffffffffffffff1673ffffffffffffffffffffffffffffffffffffffff1681526020019081526020016000206003019080519060200190610cad92919061181a565b50826000808773ffffffffffffffffffffffffffffffffffffffff1673ffffffffffffffffffffffffffffffffffffffff1681526020019081526020016000206004019080519060200190610d0392919061181a565b50816000808773ffffffffffffffffffffffffffffffffffffffff1673ffffffffffffffffffffffffffffffffffffffff1681526020019081526020016000206002019080519060200190610d5992919061181a565b508473ffffffffffffffffffffffffffffffffffffffff167f94e010e3b476601a764f1817502698ea110019401013a5d30c350e5ded4e74a26000808873ffffffffffffffffffffffffffffffffffffffff1673ffffffffffffffffffffffffffffffffffffffff1681526020019081526020016000206000016000808973ffffffffffffffffffffffffffffffffffffffff1673ffffffffffffffffffffffffffffffffffffffff1681526020019081526020016000206001018588886000808d73ffffffffffffffffffffffffffffffffffffffff1673ffffffffffffffffffffffffffffffffffffffff1681526020019081526020016000206006015460405180806020018060200180602001806020018060200187815260200186810386528c818154600181600116156101000203166002900481526020019150805460018160011615610100020316600290048015610ef85780601f10610ecd57610100808354040283529160200191610ef8565b820191906000526020600020905b815481529060010190602001808311610edb57829003601f168201915b505086810385528b818154600181600116156101000203166002900481526020019150805460018160011615610100020316600290048015610f7b5780601f10610f5057610100808354040283529160200191610f7b565b820191906000526020600020905b815481529060010190602001808311610f5e57829003601f168201915b505086810384528a818151815260200191508051906020019080838360005b83811015610fb5578082015181840152602081019050610f9a565b50505050905090810190601f168015610fe25780820380516001836020036101000a031916815260200191505b50868103835289818151815260200191508051906020019080838360005b8381101561101b578082015181840152602081019050611000565b50505050905090810190601f1680156110485780820380516001836020036101000a031916815260200191505b50868103825288818151815260200191508051906020019080838360005b83811015611081578082015181840152602081019050611066565b50505050905090810190601f1680156110ae5780820380516001836020036101000a031916815260200191505b509b50505050505050505050505060405180910390a260019050949350505050565b60006110db876116f2565b156110e557600080fd5b856000808973ffffffffffffffffffffffffffffffffffffffff1673ffffffffffffffffffffffffffffffffffffffff168152602001908152602001600020600001908051906020019061113a92919061181a565b50846000808973ffffffffffffffffffffffffffffffffffffffff1673ffffffffffffffffffffffffffffffffffffffff168152602001908152602001600020600101908051906020019061119092919061181a565b50836000808973ffffffffffffffffffffffffffffffffffffffff1673ffffffffffffffffffffffffffffffffffffffff16815260200190815260200160002060020190805190602001906111e692919061181a565b50826000808973ffffffffffffffffffffffffffffffffffffffff1673ffffffffffffffffffffffffffffffffffffffff168152602001908152602001600020600301908051906020019061123c92919061181a565b50816000808973ffffffffffffffffffffffffffffffffffffffff1673ffffffffffffffffffffffffffffffffffffffff168152602001908152602001600020600401908051906020019061129292919061181a565b5060016000808973ffffffffffffffffffffffffffffffffffffffff1673ffffffffffffffffffffffffffffffffffffffff168152602001908152602001600020600501819055506001600380548060010182816112f0919061189a565b916000526020600020900160008a909190916101000a81548173ffffffffffffffffffffffffffffffffffffffff021916908373ffffffffffffffffffffffffffffffffffffffff160217905550036000808973ffffffffffffffffffffffffffffffffffffffff1673ffffffffffffffffffffffffffffffffffffffff168152602001908152602001600020600601819055508673ffffffffffffffffffffffffffffffffffffffff167f290e31961d2880faedf758b3cb87c1af222e58f975c783b7459703b03e87f2bd87878787876000808f73ffffffffffffffffffffffffffffffffffffffff1673ffffffffffffffffffffffffffffffffffffffff1681526020019081526020016000206006015460405180806020018060200180602001806020018060200187815260200186810386528c818151815260200191508051906020019080838360005b8381101561145957808201518184015260208101905061143e565b50505050905090810190601f1680156114865780820380516001836020036101000a031916815260200191505b5086810385528b818151815260200191508051906020019080838360005b838110156114bf5780820151818401526020810190506114a4565b50505050905090810190601f1680156114ec5780820380516001836020036101000a031916815260200191505b5086810384528a818151815260200191508051906020019080838360005b8381101561152557808201518184015260208101905061150a565b50505050905090810190601f1680156115525780820380516001836020036101000a031916815260200191505b50868103835289818151815260200191508051906020019080838360005b8381101561158b578082015181840152602081019050611570565b50505050905090810190601f1680156115b85780820380516001836020036101000a031916815260200191505b50868103825288818151815260200191508051906020019080838360005b838110156115f15780820151818401526020810190506115d6565b50505050905090810190601f16801561161e5780820380516001836020036101000a031916815260200191505b509b50505050505050505050505060405180910390a260016003805490500390509695505050505050565b60038181548110151561165857fe5b90600052602060002090016000915054906101000a900473ffffffffffffffffffffffffffffffffffffffff1681565b6000803390506103e8600160008373ffffffffffffffffffffffffffffffffffffffff1673ffffffffffffffffffffffffffffffffffffffff168152602001908152602001600020819055508073ffffffffffffffffffffffffffffffffffffffff163191505090565b600080600380549050141561170a57600090506117b7565b8173ffffffffffffffffffffffffffffffffffffffff1660036000808573ffffffffffffffffffffffffffffffffffffffff1673ffffffffffffffffffffffffffffffffffffffff1681526020019081526020016000206006015481548110151561177157fe5b906000526020600020900160009054906101000a900473ffffffffffffffffffffffffffffffffffffffff1673ffffffffffffffffffffffffffffffffffffffff161490505b919050565b60025481565b60006003828154811015156117d357fe5b906000526020600020900160009054906101000a900473ffffffffffffffffffffffffffffffffffffffff169050919050565b602060405190810160405280600081525090565b828054600181600116156101000203166002900490600052602060002090601f016020900481019282601f1061185b57805160ff1916838001178555611889565b82800160010185558215611889579182015b8281111561188857825182559160200191906001019061186d565b5b50905061189691906118c6565b5090565b8154818355818115116118c1578183600052602060002091820191016118c091906118c6565b5b505050565b6118e891905b808211156118e45760008160009055506001016118cc565b5090565b905600a165627a7a72305820198d012376297c2de2b90e501f751f26ed440739ffc8aa1afb94905a98d19e2f0029",
  "source": "pragma solidity ^0.4.18;\n\ncontract DataAccess {\n\n    // This declares a new complex type which\n    // will be used for variables\n    // it represents a single usersData\n    struct DataLocation {\n        string ownerName;\n        string institution;\n        string bgChainToken;\n        string dateOfAccess;\n        string projectSummary;\n        uint accessCount;\n        uint index;\n    }\n\n    struct Index {\n        uint indexLocation;\n    }\n\n    // store Data that has a location\n    mapping(address => DataLocation) private datastores;\n\n    mapping (address => uint) private balances;\n\n    // store datalocation Count\n    uint public datalocationsCount;\n\n    // userIndex stors location of pointers\n    address[] public userIndex;\n\n    // stored event\n    event storedEvent (\n        uint indexed _dataLocationId\n    );\n\n    // event for new data location \n    event LogNewData   (\n        address indexed dataAddress, \n        string ownerName,\n        string institution,\n        string bgChainToken,\n        string dateOfAccess,\n        string projectSummary,\n       // uint accessCount,\n        uint index);\n\n\n    // event for new updated data  location \n    event LogUpdateData   (\n        address indexed dataAddress,\n        string ownerName,\n        string institution,\n        string bgChainToken,\n        string dateOfAccess,\n        string projectsSummary,\n     //   uint accessCount,\n        uint index);\n    \n    function enroll() public returns (uint){\n      /* Set the sender's balance to 1000, return the sender's balance */\n        address user = msg.sender;\n        \n        balances[user] = 1000; \n        return user.balance;\n    }\n\n\n    function validateData(address dataAddress) \n        public \n        constant \n        returns(bool checkedOwner) {\n            if(userIndex.length == 0) return false;\n            return (userIndex[datastores[dataAddress].index] == dataAddress);\n        }\n\n    // function that adds initial dataLocation \n    function insertDataLocation (\n        address dataAddress,\n        string _ownerName,\n        string _institution,\n        string _bgChainToken,\n        string _dateOfAccess,\n        string _projectSummary)\n\n        public returns(uint index)\n        {\n            if(validateData(dataAddress)) revert();\n        datastores[dataAddress].ownerName = _ownerName;\n        datastores[dataAddress].institution = _institution;\n        datastores[dataAddress].bgChainToken = _bgChainToken;\n        datastores[dataAddress].dateOfAccess = _dateOfAccess;\n        datastores[dataAddress].projectSummary = _projectSummary;\n        datastores[dataAddress].accessCount=1;\n        datastores[dataAddress].index = userIndex.push(dataAddress)-1;\n        LogNewData(\n            dataAddress,  \n            _ownerName,\n            _institution,\n            _bgChainToken,\n            _dateOfAccess,\n            _projectSummary,\n            datastores[dataAddress].index);\n            return userIndex.length-1;\n        }\n\n\n    // function to get data stored in contract\n    function getData(address dataAddress)\n        public \n        constant\n        returns(\n        string ownerName,\n        string institution,\n        string bgChainToken,\n        string dateOfAccess,\n        string projectSummary,\n        uint index)\n    {\n        if(!validateData(dataAddress)) revert(); \n        return(\n            datastores[dataAddress].ownerName,\n            datastores[dataAddress].institution,\n            datastores[dataAddress].bgChainToken,\n            datastores[dataAddress].dateOfAccess,\n            datastores[dataAddress].projectSummary,\n            datastores[dataAddress].index);\n    }\n\n\n    // Function updates data location\n    function updateDataLocation(address _dataAddress, string _dateOfAccess, string _projectSummary,  string _bgChainToken) \n        public\n        returns(bool success)\n        {\n            if(!validateData(_dataAddress)) revert();\n            datastores[_dataAddress].dateOfAccess = _dateOfAccess;\n            datastores[_dataAddress].projectSummary = _projectSummary;\n            datastores[_dataAddress].bgChainToken = _bgChainToken;\n            LogUpdateData(\n                _dataAddress,\n                datastores[_dataAddress].ownerName,\n                datastores[_dataAddress].institution,\n                _bgChainToken,\n                _dateOfAccess,\n                _projectSummary,\n                datastores[_dataAddress].index);\n                return true;\n        }\n\n    // funtion to update Data owner - not sure of use case? //\n    function getDataCount()\n    public\n    constant\n    returns(uint count)\n  {\n    return userIndex.length;\n  }\n\n  function getUserAtIndex(uint index)\n    public\n    constant\n    returns(address dataAddress)\n  {\n    return userIndex[index];\n  }\n\n}\n\n",
  "sourcePath": "/Users/franknankivell/Code/final-project-combined/contracts/DataAccess.sol",
  "compiler": {
    "name": "solc",
    "version": "0.4.18+commit.9cf6e910.Emscripten.clang"
  },
  "schemaVersion": "3.0.10",
  "updatedAt": "2019-10-04T15:45:17.963Z",
  "devdoc": {
    "methods": {}
  },
  "userdoc": {
    "methods": {}
  }
}