{
  "contractName": "Register",
  "abi": [
    {
      "constant": true,
      "inputs": [
        {
          "name": "",
          "type": "address"
        }
      ],
      "name": "entityStructs",
      "outputs": [
        {
          "name": "entityData",
          "type": "uint256"
        },
        {
          "name": "isEntity",
          "type": "bool"
        }
      ],
      "payable": false,
      "stateMutability": "view",
      "type": "function"
    },
    {
      "constant": true,
      "inputs": [
        {
          "name": "entityAddress",
          "type": "address"
        }
      ],
      "name": "isEntity",
      "outputs": [
        {
          "name": "isIndeed",
          "type": "bool"
        }
      ],
      "payable": false,
      "stateMutability": "view",
      "type": "function"
    },
    {
      "constant": false,
      "inputs": [
        {
          "name": "entityAddress",
          "type": "address"
        },
        {
          "name": "entityData",
          "type": "uint256"
        }
      ],
      "name": "newEntity",
      "outputs": [
        {
          "name": "success",
          "type": "bool"
        }
      ],
      "payable": false,
      "stateMutability": "nonpayable",
      "type": "function"
    },
    {
      "constant": false,
      "inputs": [
        {
          "name": "entityAddress",
          "type": "address"
        }
      ],
      "name": "deleteEntity",
      "outputs": [
        {
          "name": "success",
          "type": "bool"
        }
      ],
      "payable": false,
      "stateMutability": "nonpayable",
      "type": "function"
    },
    {
      "constant": false,
      "inputs": [
        {
          "name": "entityAddress",
          "type": "address"
        },
        {
          "name": "entityData",
          "type": "uint256"
        }
      ],
      "name": "updateEntity",
      "outputs": [
        {
          "name": "success",
          "type": "bool"
        }
      ],
      "payable": false,
      "stateMutability": "nonpayable",
      "type": "function"
    },
    {
      "constant": false,
      "inputs": [
        {
          "name": "entityAddress",
          "type": "address"
        }
      ],
      "name": "getEntity",
      "outputs": [
        {
          "name": "entityData",
          "type": "uint256"
        }
      ],
      "payable": false,
      "stateMutability": "nonpayable",
      "type": "function"
    }
  ],
  "bytecode": "0x6060604052341561000f57600080fd5b61052d8061001e6000396000f300606060405260043610610078576000357c0100000000000000000000000000000000000000000000000000000000900463ffffffff168063070c38c01461007d57806314887c58146100d75780634dd448bf146101285780635b9b08671461018057806375894e8c146101d1578063d599fdd41461021e575b600080fd5b341561008857600080fd5b6100bd600480803573ffffffffffffffffffffffffffffffffffffffff16906020019091908035906020019091905050610278565b604051808215151515815260200191505060405180910390f35b34156100e257600080fd5b61010e600480803573ffffffffffffffffffffffffffffffffffffffff169060200190919050506102de565b604051808215151515815260200191505060405180910390f35b341561013357600080fd5b61015f600480803573ffffffffffffffffffffffffffffffffffffffff16906020019091905050610336565b60405180838152602001821515151581526020019250505060405180910390f35b341561018b57600080fd5b6101b7600480803573ffffffffffffffffffffffffffffffffffffffff16906020019091905050610367565b604051808215151515815260200191505060405180910390f35b34156101dc57600080fd5b610208600480803573ffffffffffffffffffffffffffffffffffffffff169060200190919050506103e0565b6040518082815260200191505060405180910390f35b341561022957600080fd5b61025e600480803573ffffffffffffffffffffffffffffffffffffffff16906020019091908035906020019091905050610442565b604051808215151515815260200191505060405180910390f35b6000610283836102de565b151561028e57600080fd5b816000808573ffffffffffffffffffffffffffffffffffffffff1673ffffffffffffffffffffffffffffffffffffffff168152602001908152602001600020600001819055506001905092915050565b60008060008373ffffffffffffffffffffffffffffffffffffffff1673ffffffffffffffffffffffffffffffffffffffff16815260200190815260200160002060010160009054906101000a900460ff169050919050565b60006020528060005260406000206000915090508060000154908060010160009054906101000a900460ff16905082565b6000610372826102de565b151561037d57600080fd5b60008060008473ffffffffffffffffffffffffffffffffffffffff1673ffffffffffffffffffffffffffffffffffffffff16815260200190815260200160002060010160006101000a81548160ff02191690831515021790555060019050919050565b60006103eb826102de565b15156103f657600080fd5b806000808473ffffffffffffffffffffffffffffffffffffffff1673ffffffffffffffffffffffffffffffffffffffff1681526020019081526020016000206000018190559050919050565b600061044d836102de565b1561045757600080fd5b816000808573ffffffffffffffffffffffffffffffffffffffff1673ffffffffffffffffffffffffffffffffffffffff1681526020019081526020016000206000018190555060016000808573ffffffffffffffffffffffffffffffffffffffff1673ffffffffffffffffffffffffffffffffffffffff16815260200190815260200160002060010160006101000a81548160ff02191690831515021790555060019050929150505600a165627a7a72305820975a48866db5cc1d714cb13116b4fdd4d061ff7d85382425dd83bbc4f6ca04440029",
  "source": "pragma solidity ^0.4.18;\n\ncontract Register {\n\n  struct EntityStruct {\n    uint entityData;\n    bool isEntity;\n  }\n\n  mapping (address => EntityStruct) public entityStructs;\n\n  function isEntity(address entityAddress) public constant returns(bool isIndeed) {\n    return entityStructs[entityAddress].isEntity;\n  }\n\n  function newEntity(address entityAddress, uint entityData) public returns(bool success) {\n    if(isEntity(entityAddress)) revert(); \n    entityStructs[entityAddress].entityData = entityData;\n    entityStructs[entityAddress].isEntity = true;\n    return true;\n  }\n\n  function deleteEntity(address entityAddress) public returns(bool success) {\n    if(!isEntity(entityAddress)) revert();\n    entityStructs[entityAddress].isEntity = false;\n    return true;\n  }\n\n  function updateEntity(address entityAddress, uint entityData) public returns(bool success) {\n    if(!isEntity(entityAddress)) revert();\n    entityStructs[entityAddress].entityData = entityData;\n    return true;\n  }\n\n  function getEntity(address entityAddress) public returns(uint entityData) {\n    if(!isEntity(entityAddress)) revert();\n    return entityStructs[entityAddress].entityData = entityData;\n  }\n}\n",
  "sourcePath": "/Users/franknankivell/Code/final-project-combined/contracts/Register.sol",
  "compiler": {
    "name": "solc",
    "version": "0.4.18+commit.9cf6e910.Emscripten.clang"
  },
  "schemaVersion": "3.0.10",
  "updatedAt": "2019-10-04T15:03:40.564Z",
  "devdoc": {
    "methods": {}
  },
  "userdoc": {
    "methods": {}
  }
}