{
  "contractName": "Register",
  "abi": [
    {
      "constant": true,
      "inputs": [
        {
          "name": "",
          "type": "address"
        }
      ],
      "name": "entityStructs",
      "outputs": [
        {
          "name": "entityData",
          "type": "string"
        },
        {
          "name": "isEntity",
          "type": "bool"
        }
      ],
      "payable": false,
      "stateMutability": "view",
      "type": "function"
    },
    {
      "anonymous": false,
      "inputs": [
        {
          "indexed": false,
          "name": "entityAddress",
          "type": "address"
        },
        {
          "indexed": false,
          "name": "entityData",
          "type": "string"
        }
      ],
      "name": "EntityCreated",
      "type": "event"
    },
    {
      "constant": true,
      "inputs": [
        {
          "name": "entityAddress",
          "type": "address"
        }
      ],
      "name": "isEntity",
      "outputs": [
        {
          "name": "isIndeed",
          "type": "bool"
        }
      ],
      "payable": false,
      "stateMutability": "view",
      "type": "function"
    },
    {
      "constant": false,
      "inputs": [
        {
          "name": "entityAddress",
          "type": "address"
        },
        {
          "name": "_entityData",
          "type": "string"
        }
      ],
      "name": "newEntity",
      "outputs": [
        {
          "name": "success",
          "type": "bool"
        }
      ],
      "payable": false,
      "stateMutability": "nonpayable",
      "type": "function"
    },
    {
      "constant": false,
      "inputs": [
        {
          "name": "entityAddress",
          "type": "address"
        }
      ],
      "name": "deleteEntity",
      "outputs": [
        {
          "name": "success",
          "type": "bool"
        }
      ],
      "payable": false,
      "stateMutability": "nonpayable",
      "type": "function"
    },
    {
      "constant": false,
      "inputs": [
        {
          "name": "entityAddress",
          "type": "address"
        },
        {
          "name": "entityData",
          "type": "string"
        }
      ],
      "name": "updateEntity",
      "outputs": [
        {
          "name": "success",
          "type": "bool"
        }
      ],
      "payable": false,
      "stateMutability": "nonpayable",
      "type": "function"
    },
    {
      "constant": false,
      "inputs": [
        {
          "name": "entityAddress",
          "type": "address"
        }
      ],
      "name": "getEntity",
      "outputs": [
        {
          "name": "entityData",
          "type": "string"
        }
      ],
      "payable": false,
      "stateMutability": "nonpayable",
      "type": "function"
    }
  ],
  "bytecode": "0x6060604052341561000f57600080fd5b6108df8061001e6000396000f300606060405260043610610078576000357c0100000000000000000000000000000000000000000000000000000000900463ffffffff16806314887c581461007d5780634dd448bf146100ce5780635b9b0867146101a857806375894e8c146101f957806396c48c2d146102ab578063aeeccf9b1461033f575b600080fd5b341561008857600080fd5b6100b4600480803573ffffffffffffffffffffffffffffffffffffffff169060200190919050506103d3565b604051808215151515815260200191505060405180910390f35b34156100d957600080fd5b610105600480803573ffffffffffffffffffffffffffffffffffffffff1690602001909190505061042b565b6040518080602001831515151581526020018281038252848181546001816001161561010002031660029004815260200191508054600181600116156101000203166002900480156101985780601f1061016d57610100808354040283529160200191610198565b820191906000526020600020905b81548152906001019060200180831161017b57829003601f168201915b5050935050505060405180910390f35b34156101b357600080fd5b6101df600480803573ffffffffffffffffffffffffffffffffffffffff1690602001909190505061045b565b604051808215151515815260200191505060405180910390f35b341561020457600080fd5b610230600480803573ffffffffffffffffffffffffffffffffffffffff169060200190919050506104d4565b6040518080602001828103825283818151815260200191508051906020019080838360005b83811015610270578082015181840152602081019050610255565b50505050905090810190601f16801561029d5780820380516001836020036101000a031916815260200191505b509250505060405180910390f35b34156102b657600080fd5b610325600480803573ffffffffffffffffffffffffffffffffffffffff1690602001909190803590602001908201803590602001908080601f016020809104026020016040519081016040528093929190818152602001838380828437820191505050505050919050506105e5565b604051808215151515815260200191505060405180910390f35b341561034a57600080fd5b6103b9600480803573ffffffffffffffffffffffffffffffffffffffff1690602001909190803590602001908201803590602001908080601f01602080910402602001604051908101604052809392919081815260200183838082843782019150505050505091905050610784565b604051808215151515815260200191505060405180910390f35b60008060008373ffffffffffffffffffffffffffffffffffffffff1673ffffffffffffffffffffffffffffffffffffffff16815260200190815260200160002060010160009054906101000a900460ff169050919050565b600060205280600052604060002060009150905080600001908060010160009054906101000a900460ff16905082565b6000610466826103d3565b151561047157600080fd5b60008060008473ffffffffffffffffffffffffffffffffffffffff1673ffffffffffffffffffffffffffffffffffffffff16815260200190815260200160002060010160006101000a81548160ff02191690831515021790555060019050919050565b6104dc6107fa565b6104e5826103d3565b15156104f057600080fd5b806000808473ffffffffffffffffffffffffffffffffffffffff1673ffffffffffffffffffffffffffffffffffffffff168152602001908152602001600020600001908051906020019061054592919061080e565b8054600181600116156101000203166002900480601f0160208091040260200160405190810160405280929190818152602001828054600181600116156101000203166002900480156105d95780601f106105ae576101008083540402835291602001916105d9565b820191906000526020600020905b8154815290600101906020018083116105bc57829003601f168201915b50505050509050919050565b60006105f0836103d3565b156105fa57600080fd5b816000808573ffffffffffffffffffffffffffffffffffffffff1673ffffffffffffffffffffffffffffffffffffffff168152602001908152602001600020600001908051906020019061064f92919061080e565b5060016000808573ffffffffffffffffffffffffffffffffffffffff1673ffffffffffffffffffffffffffffffffffffffff16815260200190815260200160002060010160006101000a81548160ff0219169083151502179055507f30888466bd8fad834d69f9ebf05d3c6cba765e925b74f1a12a48749d59679ba68383604051808373ffffffffffffffffffffffffffffffffffffffff1673ffffffffffffffffffffffffffffffffffffffff16815260200180602001828103825283818151815260200191508051906020019080838360005b8381101561073f578082015181840152602081019050610724565b50505050905090810190601f16801561076c5780820380516001836020036101000a031916815260200191505b50935050505060405180910390a16001905092915050565b600061078f836103d3565b151561079a57600080fd5b816000808573ffffffffffffffffffffffffffffffffffffffff1673ffffffffffffffffffffffffffffffffffffffff16815260200190815260200160002060000190805190602001906107ef92919061080e565b506001905092915050565b602060405190810160405280600081525090565b828054600181600116156101000203166002900490600052602060002090601f016020900481019282601f1061084f57805160ff191683800117855561087d565b8280016001018555821561087d579182015b8281111561087c578251825591602001919060010190610861565b5b50905061088a919061088e565b5090565b6108b091905b808211156108ac576000816000905550600101610894565b5090565b905600a165627a7a723058207b2902a472db9fdc7ea0719ccdc926170af204acfaba325d622871ffa4e7dcb50029",
  "source": "pragma solidity ^0.4.18;\n\ncontract Register {\n\n  struct EntityStruct {\n    string entityData;\n    bool isEntity;\n  }\n\n  mapping (address => EntityStruct) public entityStructs;\n\n  function isEntity(address entityAddress) public constant returns(bool isIndeed) {\n    return entityStructs[entityAddress].isEntity;\n  }\n\n  function newEntity(\n          address entityAddress, \n          string _entityData) \n          public returns(bool success) {\n    if(isEntity(entityAddress)) revert(); \n    \n    entityStructs[entityAddress].entityData = _entityData;\n    entityStructs[entityAddress].isEntity = true;\n    EntityCreated(entityAddress, _entityData);\n    return true;\n  }\n\n  function deleteEntity(address entityAddress) public returns(bool success) {\n    if(!isEntity(entityAddress)) revert();\n    entityStructs[entityAddress].isEntity = false;\n    return true;\n  }\n\n  function updateEntity(address entityAddress, string entityData) public returns(bool success) {\n    if(!isEntity(entityAddress)) revert();\n    entityStructs[entityAddress].entityData = entityData;\n    return true;\n  }\n\n  function getEntity(address entityAddress) public returns(string entityData) {\n    if(!isEntity(entityAddress)) revert();\n    return entityStructs[entityAddress].entityData = entityData;\n  }\n  /**\n  * Events\n  */\n  event EntityCreated(address entityAddress, string entityData);\n\n\n}\n",
  "sourcePath": "/Users/franknankivell/Code/final-project-combined/contracts/Register.sol",
  "compiler": {
    "name": "solc",
    "version": "0.4.18+commit.9cf6e910.Emscripten.clang"
  },
  "schemaVersion": "3.0.10",
  "updatedAt": "2019-10-06T14:28:50.314Z",
  "devdoc": {
    "methods": {}
  },
  "userdoc": {
    "methods": {}
  }
}